:020000040800F2
:10000000008000207D1800082D1600083316000817
:10001000391600083F1600084516000800000000C9
:10002000000000000000000000000000B1A3000874
:100030004B1600080000000001A60008857F00089C
:10004000CD180008CD180008CD180008CD180008FC
:10005000CD180008CD180008CD180008CD180008EC
:10006000CD180008CD180008CD1800085916000852
:100070006D1600088116000895160008CD180008B6
:10008000CD18000800000000A9160008CD180008CF
:10009000CD180008CD180008CD180008CD180008AC
:1000A000C5160008D9160008CD180008CD1800089C
:1000B000CD180008CD180008CD180008CD1800088C
:1000C000CD180008CD180008CD180008CD1800087C
:1000D000CD180008CD180008CD180008CD1800086C
:1000E000CD180008CD180008CD180008CD1800085C
:1000F000CD180008CD180008CD1800080000000039
:1001000000000000CD18000800000000CD18000815
:10011000CD18000800000000ED160008CD180008FA
:10012000CD180008CD180008CD180008CD1800081B
:10013000CD1800080000000000000000CD180008E5
:10014000CD180008CD1800080000000000000000D5
:10015000000000000000000000000000000000009F
:10016000000000000000000000000000CD180008A2
:10017000CD18000800000000000000000000000092
:1001800000000000CD180008000000000000000082
:10019000000000000000000000000000000000005F
:1001A0000000000000000000CD180008CD18000875
:1001B000CD180008CD180008CD1800080000000078
:1001C00000000000CD180008000000000000000042
:0801D000CD180008CD1800084D
:1001E00053B94AB9002908BF00281CBF4FF0FF319E
:1001F0004FF0FF3000F00CB8ADF1080C6DE904CE03
:100200000AF0ACFCDDF804E0DDE9022304B070473D
:10021000704700BF0348044B834202D0034B03B135
:1002200018477047600000206000002000000000B8
:100230000548064B1B1AD90F01EBA301491002D048
:10024000034B03B118477047600000206000002096
:100250000000000010B5064C237843B9FFF7DAFF21
:10026000044B13B10448AFF300800123237010BD89
:10027000600000200000000034B0000808B5054B05
:100280001BB105490548AFF30080BDE80840FFF702
:10029000CFBF00BF000000006400002034B00008A1
:1002A00080B500AF01F013FB00F01FF800F080F8FC
:1002B00000F044F900F0A2FC00F028FE00F006FF78
:1002C00001F0B4F800F0DAFB00F032FD00F058FD68
:1002D00000F07EFD00F074F900F03EFA07F06CFECD
:1002E00001F0B2FA07F08CFEFEE780B594B000AFE3
:1002F00007F118033822002118460AF0ABFD3B1D18
:1003000000221A605A609A60DA601A61002002F0D6
:1003100065FA0123BB614FF48033FB6102237B63E9
:100320000323BB630123FB632A233B6402237B6417
:100330000223BB640223FB6407F11803184601F093
:10034000FDFA0346002B01D000F02CF80F237B6050
:100350000323BB600023FB604FF480633B614FF4D9
:1003600080637B613B1D0421184601F0F9FD0346C3
:10037000002B01D000F016F800BF5037BD4680BDFD
:1003800080B582B000AF78607B681B68044A9342F6
:1003900001D101F0B5FA00BF0837BD4680BD00BFEE
:1003A0000010004080B400AF72B600BFFEE700004E
:1003B00080B58AB000AF07F1140300221A605A60BA
:1003C0009A60DA601A61594BDB6C584A43F00403B7
:1003D000D364564BDB6C03F004033B613B69534B26
:1003E000DB6C524A43F02003D364504BDB6C03F0C8
:1003F0002003FB60FB684D4BDB6C4C4A43F0010370
:10040000D3644A4BDB6C03F00103BB60BB68474B12
:10041000DB6C464A43F00203D364444BDB6C03F0CD
:1004200002037B607B68414BDB6C404A43F008036E
:10043000D3643E4BDB6C03F008033B603B68002257
:100440004FF480413A4802F0FBFC002210214FF0AB
:10045000904002F0F5FC01224FF400414FF0904033
:1004600002F0EEFC00220421324802F0E9FC0022F6
:100470006021314802F0E4FC4FF480437B610123AA
:10048000BB610023FB6100233B6207F114031946A3
:10049000274802F049FB48F210037B610123BB614E
:1004A0000023FB6100233B6207F1140319464FF060
:1004B000904002F039FB4FF480637B610023BB6105
:1004C0000023FB6107F1140319461B4802F02CFBC3
:1004D0004FF400737B614FF48813BB610023FB6111
:1004E00007F114031946124802F01EFB04237B6136
:1004F0000123BB610023FB6100233B6207F114036E
:1005000019460C4802F010FB60237B610123BB619C
:100510000023FB6100233B6207F1140319460648E0
:1005200002F002FB00BF2837BD4680BD001002402C
:1005300000080048000C00480004004880B582B064
:1005400000AF1E4B9B6C1D4A43F0040393641B4B8E
:100550009B6C03F004037B607B68184B9B6C174A11
:1005600043F001039364154B9B6C03F001033B6064
:100570003B68002205210B2002F09CFA0B2002F0C0
:10058000B3FA002205210C2002F094FA0C2002F0AC
:10059000ABFA002205210D2002F08CFA0D2002F0AA
:1005A000A3FA002205210E2002F084FA0E2002F0A8
:1005B0009BFA00BF0837BD4680BD00BF0010024057
:1005C00080B59AB000AF07F15C0300221A605A6050
:1005D0009A6007F13C032022002118460AF03AFCF9
:1005E0003B463C22002118460AF034FC554B4FF0A4
:1005F000A0421A60534B4FF440325A60514B0022D4
:100600009A60504B4FF40042DA604E4B00221A6160
:100610004C4B01225A614B4B04229A61494B0022F8
:100620001A77484B00225A77464B02221A62454BF2
:10063000002283F82420434B0022DA62414B00223F
:100640001A63404B002283F838203E4B0022DA63C5
:100650003C4B002283F840203A4802F0E7FF034673
:10066000002B01D0FFF79EFE0023FB6507F15C0322
:100670001946344804F0E2FD0346002B01D0FFF791
:1006800091FE314BFB6306233B6404237B647F2391
:10069000BB640423FB6400233B6507F13C0319465C
:1006A000284803F07FFB0346002B01D0FFF77AFEBA
:1006B000264BFB630C233B6407F13C03194621489E
:1006C00003F070FB0346002B01D0FFF76BFE204BBD
:1006D0003B6009237B600123BB607F23FB60042315
:1006E0003B6100237B6102233B62002387F82430B7
:1006F000002387F82530002387F826308423BB6247
:100700008023FB62002387F830303B4619460D48B2
:1007100004F0B4F80346002B01D0FFF743FE0D4B65
:100720003B6040F20F137B603B461946054804F0DE
:10073000A5F80346002B01D0FFF734FE00BF683751
:10074000BD4680BD7C0000200040C03A0008302E2D
:100750000002B0252000F01480B598B000AF07F17A
:1007600040032022002118460AF074FB3B1D3C2266
:10077000002118460AF06EFB474B484A1A60464B68
:100780004FF440325A60444B00229A60424B4FF47F
:100790000042DA60404B00221A613F4B01225A614D
:1007A0003D4B04229A613C4B00221A773A4B0022BF
:1007B0005A77394B01221A62374B002283F82420E2
:1007C000354B0022DA62344B00221A63324B00228E
:1007D00083F83820304B0022DA632F4B002283F855
:1007E00040202D4802F022FF0346002B01D0FFF7E6
:1007F000D9FD2B4B3B6406237B640423BB647F231E
:10080000FB6404233B6500237B6507F14003194625
:10081000214803F0C7FA0346002B01D0FFF7C2FDC1
:10082000204B7B600923BB600123FB607F233B617E
:1008300004237B610023BB6102237B62002387F8D2
:100840002830002387F82930002387F82A308423B2
:10085000FB6280233B63002387F834303B1D19463D
:100860000D4804F00BF80346002B01D0FFF79AFD6A
:100870000D4B7B6040F20F13BB603B1D19460648D1
:1008800003F0FCFF0346002B01D0FFF78BFD00BFF8
:100890006037BD4680BD00BFE80000200001005069
:1008A0000008302E2000F0140002B02580B59EB064
:1008B00000AF786007F1640300221A605A609A6002
:1008C000DA601A6107F120034422002118460AF079
:1008D000C1FA7B681B68B3F1A04F77D14FF4004396
:1008E0003B624FF00053FB6507F12003184601F00F
:1008F00085FD0346002B01D0FFF754FD5A4B1B68C2
:100900000133594A1360584B1B68012B0BD1574BCD
:10091000DB6C564A43F40053D364544BDB6C03F452
:100920000053FB61FB69514BDB6C504A43F00403FD
:10093000D3644E4BDB6C03F00403BB61BB694B4BD0
:10094000DB6C4A4A43F00103D364484BDB6C03F091
:1009500001037B617B69454BDB6C444A43F0020336
:10096000D364424BDB6C03F002033B613B690F2312
:100970007B660323BB660023FB6607F1640319460D
:100980003B4802F0D1F801237B660323BB660023BA
:10099000FB6607F1640319464FF0904002F0C4F87B
:1009A0004FF4B0437B660323BB660023FB6607F16D
:1009B000640319462F4802F0B7F8002205211220DF
:1009C00002F078F8122002F08FF849E07B681B688B
:1009D000294A934244D14FF400433B624FF0005305
:1009E000FB6507F12003184601F008FD0346002BC4
:1009F00001D0FFF7D7FC1C4B1B6801331A4A136068
:100A0000194B1B68012B0BD1184BDB6C174A43F4B5
:100A10000053D364154BDB6C03F40053FB60FB689D
:100A2000124BDB6C114A43F00403D3640F4BDB6CB5
:100A300003F00403BB60BB6838237B660323BB66FB
:100A40000023FB6607F164031946094802F06CF8BD
:100A500000220521122002F02DF8122002F044F8A5
:100A600000BF7837BD4680BD540100200010024011
:100A700000080048000400480001005080B500AFA5
:100A80001F4B204A1A601E4B01225A601C4B002249
:100A90009A601B4B0022DA60194B00221A74184B23
:100AA00000225A74164B00229A74154B04225A6184
:100AB000134B01229A61124B1022DA61104B04226F
:100AC0001A620F4B01225A620D4B01229A620C4BA3
:100AD0000122DA620A4B01221A63094B00225A638F
:100AE000074B00229A63064B0022DA63044804F0A5
:100AF00049FC0346002B01D0FFF754FC00BF80BD2A
:100B0000580100200064004080B59CB000AF7860C0
:100B100007F15C0300221A605A609A60DA601A6179
:100B200007F118034422002118460AF093F97B6864
:100B30001B682F4A934256D14FF48053BB614FF04C
:100B40000073BB6407F11803184601F057FC034615
:100B5000002B01D0FFF726FC264B9B6D254A43F066
:100B600000739365234B9B6D03F000737B617B697E
:100B7000204BDB6C1F4A43F00103D3641D4BDB6C3D
:100B800003F001033B613B691A4BDB6C194A43F0EC
:100B90000203D364174BDB6C03F00203FB60FB68BA
:100BA0004FF40063FB6502233B6600237B66002352
:100BB000BB660923FB6607F15C0319464FF09040C2
:100BC00001F0B2FF4FF40073FB6502233B66002384
:100BD0007B660023BB660923FB6607F15C031946AD
:100BE000054801F0A1FF00BF7037BD4680BD00BFC2
:100BF00000640040001002400004004880B500AFCF
:100C00001B4B1C4A1A601A4B1B4A5A60184B002295
:100C10009A60174B0122DA60154B00221A61144BBF
:100C200000225A61124B00229A61114B0022DA61B4
:100C30000F4B00221A620E4804F054FD0346002BAD
:100C400001D0FFF7AFFB0021094804F0E6FD0346A1
:100C5000002B01D0FFF7A6FB0021054804F028FE79
:100C60000346002B01D0FFF79DFB00BF80BD00BFF6
:100C7000BC010020005400409D6F912080B59AB0C7
:100C800000AF786007F1540300221A605A609A603E
:100C9000DA601A6107F110034422002118460AF0B5
:100CA000D9F87B681B681F4A934236D140233B61C9
:100CB0000023BB6207F11003184601F09FFB0346B7
:100CC000002B01D0FFF76EFB174BDB6C164A43F08D
:100CD0000203D364144BDB6C03F00203FB60FB687C
:100CE0004FF4C0737B651223BB650023FB650023B3
:100CF0003B6604237B6607F1540319460B4801F059
:100D000013FF094B9B6D084A43F400139365064B90
:100D10009B6D03F40013BB60BB6800BF6837BD4622
:100D200080BD00BF00540040001002400004004895
:100D300080B500AF104B114A1A600F4B80225A60E9
:100D40000D4B00229A600C4B0022DA600A4B002205
:100D50001A61094B00221A75074B00229A61064B53
:100D60000022DA62044804F0EFFD0346002B01D0B4
:100D7000FFF718FB00BF80BD1002002000030140F8
:100D800080B500AF104B114A1A600F4B80225A6099
:100D90000D4B00229A600C4B0022DA600A4B0022B5
:100DA0001A61094B00221A75074B00229A61064B03
:100DB0000022DA62044804F0C7FD0346002B01D08C
:100DC000FFF7F0FA00BF80BD4C0200200403014091
:100DD00080B500AF104B114A1A600F4B80225A6049
:100DE0000D4B00229A600C4B0022DA600A4B002265
:100DF0001A61094B00221A75074B00229A61064BB3
:100E00000022DA62044804F09FFD0346002B01D063
:100E1000FFF7C8FA00BF80BD880200200803014028
:100E200080B58AB000AF786007F1140300221A6021
:100E30005A609A60DA601A617B681B682E4A934296
:100E400019D12E4BDB6C2D4A43F00103D3642B4B9D
:100E5000DB6C03F001033B613B690E237B610323E1
:100E6000BB610023FB6107F1140319464FF090406A
:100E700001F05AFE3BE07B681B68214A934219D17E
:100E80001E4BDB6C1D4A43F00103D3641B4BDB6C30
:100E900003F00103FB60FB68E0237B610323BB617C
:100EA0000023FB6107F1140319464FF0904001F055
:100EB0003BFE1CE07B681B68124A934217D10F4B24
:100EC000DB6C0E4A43F00203D3640C4BDB6C03F083
:100ED0000203BB60BB6807237B610323BB61002364
:100EE000FB6107F114031946074801F01DFE00BF1E
:100EF0002837BD4680BD00BF0003014000100240FE
:100F000004030140080301400004004880B500AF1D
:100F10001B4B1C4A1A601A4B4FF482725A60184BD2
:100F200000229A60164B4FF47062DA60144B002274
:100F30001A61134B01225A61114B4FF400729A61EE
:100F40000F4B1822DA610E4B00221A620C4B002262
:100F50005A620B4B00229A62094B0722DA62084B55
:100F600000221A63064B00225A63054804F0BCFDB8
:100F70000346002B01D0FFF715FA00BF80BD00BF6C
:100F8000C4020020003C004080B58AB000AF786009
:100F900007F1140300221A605A609A60DA601A613D
:100FA0007B681B68424A93427ED1424B9B6D414A0B
:100FB00043F4004393653F4B9B6D03F400433B6157
:100FC0003B693C4BDB6C3B4A43F00403D364394B35
:100FD000DB6C03F00403FB60FB684FF4E0537B61C0
:100FE0000223BB610023FB6100233B6206237B627B
:100FF00007F114031946304801F096FD2F4B304A93
:101000001A602E4B0E225A602C4B00229A602B4BFA
:101010000022DA60294B80221A61284B4FF480723B
:101020005A61264B4FF480629A61244B0022DA61A8
:10103000224B00221A62214801F01AFF0346002BBE
:1010400001D0FFF7AFF97B681C4A9A651B4A7B68A1
:1010500093621C4B1C4A1A601A4B0F225A60194BA0
:1010600010229A60174B0022DA60164B80221A6118
:10107000144B4FF480725A61124B4FF480629A61A4
:10108000104B0022DA610F4B00221A620D4801F06A
:10109000EFFE0346002B01D0FFF784F97B68094A75
:1010A0005A65084A7B68936200BF2837BD4680BDF9
:1010B000003C0040001002400008004828030020C7
:1010C00030000240880300204400024080B59EB0FA
:1010D00000AF07F1680300221A605A609A60DA6074
:1010E00007F15C0300221A605A609A6007F150030E
:1010F00000221A605A609A6007F1340300221A60D5
:101100005A609A60DA601A615A619A613B463422E9
:101110000021184609F09EFE644B654A1A60634B35
:1011200000225A60614B20229A60604B41F23422C7
:10113000DA605E4B4FF480721A615C4B01225A6197
:101140005A4B00229A61594804F079FD0346002B5E
:1011500001D0FFF727F94FF48053BB6607F168030E
:101160001946524805F0F0F80346002B01D0FFF76E
:1011700019F94E4804F024FE0346002B01D0FFF776
:1011800011F97023FB6500233B6600237B6607F1A2
:101190005C031946454805F061FE0346002B01D06B
:1011A000FFF700F901233B6501237B650023BB6545
:1011B00007F150031A4601213C4805F05DFF034644
:1011C000002B01D0FFF7EEF860237B6340F641234C
:1011D000BB630023FB6300233B6400237B64002389
:1011E000BB640023FB6407F13403002219462F4837
:1011F00004F096FF0346002B01D0FFF7D3F807F168
:10120000340304221946294804F08AFF0346002BC0
:1012100001D0FFF7C7F807F1340308221946234825
:1012200004F07EFF0346002B01D0FFF7BBF87023CC
:101230007B630023BB6307F134030C2219461B4870
:1012400004F06EFF0346002B01D0FFF7ABF84FF41C
:1012500000633B604FF480637B600023BB605423DA
:10126000FB604FF480533B6100237B610323BB6130
:101270000023FB6100233B624FF000737B6200237D
:10128000BB620023FB6200233B633B4619460748D1
:1012900005F066FE0346002B01D0FFF783F80348F4
:1012A00000F05CF800BF7837BD4680BDE803002041
:1012B000002C014080B58AB000AF786007F11403BC
:1012C00000221A605A609A60DA601A617B681B68B3
:1012D0001F4A934238D11F4B1B6E1E4A43F40063D2
:1012E00013661C4B1B6E03F400633B613B69194B97
:1012F000DB6C184A43F00403D364164BDB6C03F039
:101300000403FB60FB684FF400537B611223BB6155
:101310000123FB6100233B6202237B6207F114037C
:1013200019460D4801F000FC00220521182001F0AB
:10133000C1FB182001F0D8FB00220521192001F083
:10134000B9FB192001F0D0FB00BF2837BD4680BD96
:10135000002C0140001002400008004880B58AB00F
:1013600000AF786007F1140300221A605A609A6097
:10137000DA601A617B681B68294A93424BD1294B7A
:10138000DB6C284A43F00203D364264BDB6C03F08A
:1013900002033B613B69234BDB6C224A43F00103B0
:1013A000D364204BDB6C03F00103FB60FB684FF45C
:1013B00000537B610223BB610223FB6102233B627A
:1013C00006237B6207F114031946174801F0ACFBB2
:1013D0004FF400437B610223BB610223FB610223C4
:1013E0003B6204237B6207F1140319460E4801F0A7
:1013F0009BFB4FF4B8537B610223BB610223FB616B
:1014000002233B6206237B6207F1140319464FF067
:10141000904001F089FB00BF2837BD4680BD00BF6A
:10142000002C0140001002400004004880B500AFCD
:10143000224B234A1A60214B4FF4E1325A601F4B72
:1014400000229A601D4B0022DA601C4B00221A61B8
:101450001A4B0C225A61194B00229A61174B002239
:10146000DA61164B00221A62144B00225A62134BA7
:1014700000229A62114805F01DFF0346002B01D09F
:10148000FEF790FF00210D4806F088FC0346002B74
:1014900001D0FEF787FF0021084806F0BDFC034697
:1014A000002B01D0FEF77EFF044806F03EFC034609
:1014B000002B01D0FEF776FF00BF80BD3404002072
:1014C0000044004080B59AB000AF786007F1540343
:1014D00000221A605A609A60DA601A6107F11003FC
:1014E00044220021184609F0B5FC7B681B68484A75
:1014F000934240F0898002233B610023BB6107F1E6
:101500001003184600F07AFF0346002B01D0FEF7C7
:1015100049FF404B9B6D3F4A43F4003393653D4B7D
:101520009B6D03F40033FB60FB683A4BDB6C394A7C
:1015300043F00203D364374BDB6C03F00203BB6060
:10154000BB6818237B650223BB650023FB65002372
:101550003B6607237B6607F1540319462E4801F0CA
:10156000E3FA2E4B2E4A1A602C4B1A225A602B4B50
:1015700000229A60294B0022DA60284B80221A61EF
:10158000264B00225A61254B00229A61234B0022F0
:10159000DA61224B00221A62204801F069FC0346FE
:1015A000002B01D0FEF7FEFE7B681C4AC3F88020AA
:1015B0001A4A7B6893621B4B1B4A1A60194B1B2209
:1015C0005A60184B10229A60164B0022DA60154BB5
:1015D00080221A61134B00225A61124B00229A6139
:1015E000104B0022DA610F4B00221A620D4801F005
:1015F0003FFC0346002B01D0FEF7D4FE7B68094A6E
:10160000DA67084A7B68936200BF6837BD4680BDD1
:10161000004400400010024000040048C8040020BC
:1016200008000240280500201C00024080B400AFE2
:10163000FEE780B400AFFEE780B400AFFEE780B401
:1016400000AFFEE780B400AFFEE780B400AF00BF9C
:10165000BD465DF8047B704780B500AF024801F0DD
:10166000AFFC00BF80BD00BFC804002080B500AF44
:10167000024801F0A5FC00BF80BD00BF2805002086
:1016800080B500AF024801F09BFC00BF80BD00BFE9
:101690002803002080B500AF024801F091FC00BF94
:1016A00080BD00BF8803002080B500AF034802F072
:1016B00041F9034802F03EF900BF80BD7C000020E4
:1016C000E800002080B500AF024804F0DAFB00BF5C
:1016D00080BD00BFE803002080B500AF024804F0E1
:1016E000D0FB00BF80BD00BFE803002080B500AF85
:1016F000024804F0C6FB00BF80BD00BF8805002083
:1017000080B582B000AF124B1B6E114A43F001034B
:1017100013660F4B1B6E03F001037B607B680C4B61
:101720009B6D0B4A43F080539365094B9B6D03F00F
:1017300080533B603B6800220F216FF0010001F0F5
:10174000B9F901F0EFF800BF0837BD4680BD00BF12
:101750000010024080B58CB000AF78600023BB62FF
:1017600000237B622D4B9B6D2C4A43F01003936545
:101770002A4B9B6D03F01003BB60BB6807F10C02A2
:1017800007F110031146184600F0C0FD00F092FD6D
:1017900003465B00BB62BB6A214AA2FB03239B0C8E
:1017A000013B7B621F4B204A1A601E4B40F2E7321E
:1017B000DA601C4A7B6A53601A4B00221A61194B8B
:1017C00000229A60174804F03AFA034687F82F304F
:1017D00097F82F30002B1BD1124804F087FA0346EC
:1017E00087F82F3097F82F30002B11D1362001F0D9
:1017F0007BF97B680F2B08D800227968362001F02E
:1018000059F90A4A7B68136002E0012387F82F30F8
:1018100097F82F3018463037BD4680BD0010024083
:1018200083DE1B43880500200010004000000020DC
:1018300080B483B000AF7860396000BF0C37BD461C
:101840005DF8047B7047000080B500AF044A0021BA
:10185000044806F0FBFB0346034A136000BF80BD4B
:1018600070B000086D180008D405002080B582B063
:1018700000AF7860012006F07EFCFBE70D4885464E
:1018800001F040F90C480D490D4A002302E0D458FC
:10189000C4500433C4188C42F9D30A4A0A4C0023BA
:1018A00001E013600432A242FBD309F039FBFEF7DA
:1018B000F7FCFEE700800020000000206000002010
:1018C000E4B0000860000020F4640020FEE780B56A
:1018D00082B000AF0023FB71032001F0E0F80F207D
:1018E000FFF738FF0346002B02D00123FB7101E014
:1018F000FFF706FFFB7918460837BD4680BD00009C
:1019000080B400AF054B1A68054B1B681344034AAB
:10191000136000BFBD465DF8047B7047D80500200A
:101920000400002080B400AF034B1B681846BD467E
:101930005DF8047B704700BFD805002080B588B0F3
:1019400000AF78607B68002B01D10123FEE27B6849
:101950001B6803F00103002B75D0974B9B6803F0C5
:101960000C03BB61944BDB6803F003037B61BB6931
:101970000C2B02D17B69032B02D0BB69082B0BD146
:101980008D4B1B6803F40033002B5BD07B685B68D6
:10199000002B57D10123D9E27B685B68B3F5803F08
:1019A00006D1854B1B68844A43F4803313601DE0E5
:1019B0007B685B68B3F5A02F0CD17F4B1B687E4A18
:1019C00043F4802313607C4B1B687B4A43F48033D1
:1019D00013600BE0784B1B68774A23F48033136065
:1019E000754B1B68744A23F4802313607B685B6823
:1019F000002B13D0FFF796FF386108E0FFF792FF46
:101A000002463B69D31A642B01D903239EE26A4B39
:101A10001B6803F40033002BF0D014E0FFF782FFC3
:101A2000386108E0FFF77EFF02463B69D31A642B5A
:101A300001D903238AE2604B1B6803F40033002BB7
:101A4000F0D100E000BF7B681B6803F00203002BAD
:101A500075D0594B9B6803F00C03BB61564BDB6898
:101A600003F003037B61BB690C2B02D17B69022B62
:101A700002D0BB69042B1FD14F4B1B6803F480635A
:101A8000002B05D07B68DB68002B01D101235DE2D0
:101A9000494B5B6823F0FE427B681B691B06464985
:101AA00013434B60454B1B681846FFF753FE034634
:101AB000002B43D0012349E27B68DB68002B23D055
:101AC0003D4B1B683C4A43F480731360FFF72AFFC9
:101AD000386108E0FFF726FF02463B69D31A022B64
:101AE00001D9032332E2344B1B6803F48063002BDB
:101AF000F0D0314B5B6823F0FE427B681B691B060C
:101B00002D4913434B601AE02B4B1B682A4A23F4E0
:101B100080731360FFF706FF386108E0FFF702FFEC
:101B200002463B69D31A022B01D903230EE2224B52
:101B30001B6803F48063002BF0D100E000BF7B68DA
:101B40001B6803F00803002B41D07B685B69002B06
:101B50001CD0194BD3F89430174A43F00103C2F854
:101B60009430FFF7DFFE386108E0FFF7DBFE024646
:101B70003B69D31A022B01D90323E7E10E4BD3F8BB
:101B8000943003F00203002BEFD020E00A4BD3F88F
:101B90009430094A23F00103C2F89430FFF7C2FEE3
:101BA00038610DE0FFF7BEFE02463B69D31A022BF7
:101BB00006D90323CAE100BF001002400000002044
:101BC0008C4BD3F8943003F00203002BEAD17B68EE
:101BD0001B6803F00403002B00F0A6800023FB77B2
:101BE000844B9B6D03F08053002B01D1012300E057
:101BF0000023002B0DD07F4B9B6D7E4A43F080531A
:101C000093657C4B9B6D03F08053FB60FB68012365
:101C1000FB77794B1B6803F48073002B18D1764B4C
:101C20001B68754A43F480731360FFF77BFE3861CD
:101C300008E0FFF777FE02463B69D31A022B01D971
:101C4000032383E16C4B1B6803F48073002BF0D0FB
:101C50007B689B68012B08D1664BD3F89030654AAE
:101C600043F00103C2F8903024E07B689B68052BA9
:101C700010D1604BD3F890305E4A43F00403C2F8B1
:101C800090305C4BD3F890305A4A43F00103C2F8CD
:101C900090300FE0574BD3F89030564A23F00103B1
:101CA000C2F89030534BD3F89030524A23F00403DB
:101CB000C2F890307B689B68002B16D0FFF732FE8D
:101CC00038610AE0FFF72EFE02463B69D31A41F263
:101CD0008832934201D9032338E1464BD3F8903040
:101CE00003F00203002BEDD015E0FFF71BFE386177
:101CF0000AE0FFF717FE02463B69D31A41F2883229
:101D0000934201D9032321E13A4BD3F8903003F0F9
:101D10000203002BEDD1FB7F012B05D1354B9B6DD1
:101D2000344A23F0805393657B681B6803F02003DB
:101D3000002B3CD07B689B69002B1CD02D4BD3F82B
:101D400098302C4A43F00103C2F89830FFF7EAFDBF
:101D5000386108E0FFF7E6FD02463B69D31A022B23
:101D600001D90323F2E0234BD3F8983003F00203A8
:101D7000002BEFD01BE01F4BD3F898301D4A23F007
:101D80000103C2F89830FFF7CDFD386108E0FFF796
:101D9000C9FD02463B69D31A022B01D90323D5E0C2
:101DA000144BD3F8983003F00203002BEFD17B687B
:101DB000DB69002B00F0C9800E4B9B6803F00C031D
:101DC0000C2B00F083807B68DB69022B5ED1094B12
:101DD0001B68084A23F080731360FFF7A3FD386186
:101DE0000CE0FFF79FFD02463B69D31A022B05D991
:101DF0000323ABE00010024000700040554B1B680D
:101E000003F00073002BECD1524BDA68524B1340B5
:101E10007A68116A7A68526A013A120111437A6843
:101E2000926A120211437A68126B5208013A520503
:101E300011437A68526B5208013A520611437A688C
:101E4000D26AD2060A4343491343CB60414B1B6815
:101E5000404A43F0807313603E4BDB683D4A43F0D9
:101E60008073D360FFF75EFD386108E0FFF75AFD2D
:101E700002463B69D31A022B01D9032366E0354B96
:101E80001B6803F00073002BF0D05EE0314B1B6841
:101E9000304A23F080731360FFF744FD386108E097
:101EA000FFF740FD02463B69D31A022B01D90323F9
:101EB0004CE0284B1B6803F00073002BF0D1254B3E
:101EC000DA682449254B1340CB603EE07B68DB6930
:101ED000012B01D1012339E01E4BDB687B617B695B
:101EE00003F003027B681B6A9A422CD17B6903F0E2
:101EF000F0027B685B6A013B1B019A4223D17B693C
:101F000003F4FE427B689B6A1B029A421BD17B69E9
:101F100003F078427B68DB6ADB069A4213D17B6967
:101F200003F4C0027B681B6B5B08013B5B059A42B4
:101F300009D17B6903F0C0627B685B6B5B08013B86
:101F40005B069A4201D0012300E0002318462037A7
:101F5000BD4680BD001002400C809F01FCFFEEFEDC
:101F600080B586B000AF7860396000237B617B6804
:101F7000002B01D101231EE1914B1B6803F00F03DD
:101F80003A689A4210D98E4B1B6823F00F028C4995
:101F90003B6813430B608A4B1B6803F00F033A68DE
:101FA0009A4201D0012306E17B681B6803F001031C
:101FB000002B73D07B685B68032B29D1814B1B6896
:101FC00003F00073002B01D10123F4E000F0D0F9FD
:101FD00038613B697C4A93423FD97A4B9B6803F056
:101FE000F003002B09D07B681B6803F00203002B71
:101FF00033D07B689B68002B2FD1724B9B6823F0FA
:10200000F003704A43F08003936080237B6124E0F7
:102010007B685B68022B07D16A4B1B6803F40033B3
:10202000002B09D10123C6E0664B1B6803F48063D3
:10203000002B01D10123BEE000F0CEF838613B69EE
:10204000614A934209D95F4B9B6823F0F0035D4AD4
:1020500043F08003936080237B615A4B9B6823F09D
:1020600003027B685B68574913438B60FFF75AFC98
:10207000F8600AE0FFF756FC0246FB68D31A41F20B
:102080008832934201D9032395E04E4B9B6803F0BD
:102090000C027B685B689B009A42EBD17B681B68F3
:1020A00003F00203002B23D07B681B6803F00403BA
:1020B000002B05D0434B9B68424A43F4E063936096
:1020C0007B681B6803F00803002B07D03D4B9B681F
:1020D00023F47C533B4A43F4E0639360394B9B68A1
:1020E00023F0F0027B689B68364913438B6008E05D
:1020F0007B69802B05D1334B9B68324A23F0F00378
:1021000093602F4B1B6803F00F033A689A421DD26D
:102110002B4B1B6823F00F0229493B6813430B60CC
:10212000FFF700FCF8600AE0FFF7FCFB0246FB68E3
:10213000D31A41F28832934201D903233BE0204B6A
:102140001B6803F00F033A689A42EDD17B681B6865
:1021500003F00403002B08D01A4B9B6823F4E062C1
:102160007B68DB68174913438B607B681B6803F04F
:102170000803002B09D0134B9B6823F460527B6843
:102180001B69DB000F4913438B6000F025F8024602
:102190000C4B9B681B0903F00F030C49CB5C03F04D
:1021A0001F0322FA03F30A4A13600A4B1B681846FE
:1021B000FFF7D0FA034618461837BD4680BD00BF6A
:1021C000002002400010024000B4C40494B0000893
:1021D000080000200000002080B487B000AF2C4B26
:1021E0009B6803F00C03042B02D12A4B3B6147E0B0
:1021F000274B9B6803F00C03082B02D1264B3B6155
:102200003EE0234B9B6803F00C030C2B36D1204B94
:10221000DB6803F00303FB601D4BDB681B0903F065
:102220000F030133BB60FB68032B0CD11A4ABB6858
:10223000B2FBF3F3164AD268120A02F07F0202FBE5
:1022400003F37B610CE0134ABB68B2FBF3F3104A63
:10225000D268120A02F07F0202FB03F37B6100BF27
:102260000B4BDB685B0E03F0030301335B007B6009
:102270007A697B68B2FBF3F33B6101E000233B61C9
:102280003B6918461C37BD465DF8047B704700BFAC
:10229000001002400024F40000127A0080B400AF65
:1022A000034B1B681846BD465DF8047B704700BFB2
:1022B0000800002080B500AFFFF7F0FF0246064B94
:1022C0009B681B0A03F007030449CB5C03F01F0360
:1022D00022FA03F3184680BD00100240A4B00008A3
:1022E00080B500AFFFF7DAFF0246064B9B68DB0ABA
:1022F00003F007030449CB5C03F01F0322FA03F346
:10230000184680BD00100240A4B0000880B483B01D
:1023100000AF786039607B680F221A60124B9B68AF
:1023200003F003027B685A600F4B9B6803F0F002D6
:102330007B689A600C4B9B6803F4E0627B68DA6010
:10234000094B9B68DB0803F4E0627B681A61074B6A
:102350001B6803F00F023B681A6000BF0C37BD46D4
:102360005DF8047B704700BF00100240002002406F
:1023700080B487B000AF1E4BDB6803F003033B6102
:102380001B4BDB681B0903F00F030133FB603B6948
:10239000032B0CD1174AFB68B2FBF3F3144AD26843
:1023A000120A02F07F0202FB03F37B610CE0124A87
:1023B000FB68B2FBF3F30E4AD268120A02F07F0206
:1023C00002FB03F37B6100BF094BDB685B0E03F08C
:1023D000030301335B00BB607A69BB68B2FBF3F3B4
:1023E0007B607B6818461C37BD465DF8047B7047F0
:1023F0000010024000127A000024F40080B586B07C
:1024000000AF78600023FB740023BB747B681B68FB
:1024100003F40023002B00F0988000237B74434BCF
:102420009B6D03F08053002B0DD1404B9B6D3F4AB9
:1024300043F0805393653D4B9B6D03F08053BB602D
:10244000BB6801237B743A4B1B68394A43F48073A1
:102450001360FFF767FAF86009E0FFF763FA0246D6
:10246000FB68D31A022B02D90323FB7405E0304B1F
:102470001B6803F48073002BEFD0FB7C002B59D139
:102480002A4BD3F8903003F440737B617B69002BB7
:102490001ED07B681B6C7A699A4219D0234BD3F803
:1024A000903023F440737B61204BD3F890301F4A67
:1024B00043F48033C2F890301C4BD3F890301B4A61
:1024C00023F48033C2F89030184A7B69C2F8903008
:1024D0007B6903F00103002B16D0FFF723FAF860A5
:1024E0000BE0FFF71FFA0246FB68D31A41F288326D
:1024F000934202D90323FB7406E00C4BD3F89030CF
:1025000003F00203002BECD0FB7C002B0BD1074B1C
:10251000D3F8903023F440727B681B6C034913435B
:10252000C1F8903008E0FB7CBB7405E0001002406D
:1025300000700040FB7CBB747B7C012B05D1A64B5B
:102540009B6DA54A23F0805393657B681B6803F05D
:102550000103002B0AD0A04BD3F8883023F00302EC
:102560007B685B689C491343C1F888307B681B68B3
:1025700003F00203002B0AD0974BD3F8883023F0E6
:102580000C027B689B6894491343C1F888307B68D0
:102590001B6803F00403002B0AD08F4BD3F888305C
:1025A00023F030027B68DB688B491343C1F8883025
:1025B0007B681B6803F00803002B0AD0864BD3F816
:1025C000883023F0C0027B681B6983491343C1F83C
:1025D00088307B681B6803F02003002B0AD07E4BF9
:1025E000D3F8883023F440627B685B697A491343EF
:1025F000C1F888307B681B6803F04003002B0AD0C9
:10260000754BD3F8883023F440527B689B6972493C
:102610001343C1F888307B681B6803F08003002BEC
:102620000AD06D4BD3F8883023F440427B68DB69D5
:1026300069491343C1F888307B681B6803F48073D1
:10264000002B0AD0644BD3F8883023F440327B68E7
:102650001B6A61491343C1F888307B681B6803F427
:102660000073002B0AD05C4BD3F8883023F440224F
:102670007B685B6A58491343C1F888307B681B68E4
:1026800003F48063002B15D0534BD3F8883023F428
:1026900040127B689B6A50491343C1F888307B68BD
:1026A0009B6AB3F5801F05D14B4BDB684A4A43F464
:1026B0008013D3607B681B6803F40063002B15D084
:1026C000454BD3F8883023F440027B68DB6A4249EB
:1026D0001343C1F888307B68DB6AB3F5800F05D1FE
:1026E0003D4BDB683C4A43F48013D3607B681B6836
:1026F00003F48053002B15D0374BD3F8883023F0E8
:1027000040727B681B6B34491343C1F888307B6887
:102710001B6BB3F1807F05D12F4BDB682E4A43F44E
:102720008013D3607B681B6803F40053002B15D023
:10273000294BD3F8883023F040627B685B6B2649D5
:102740001343C1F888307B685B6BB3F1006F05D130
:10275000214BDB68204A43F48013D3607B681B68FD
:1027600003F48043002B15D01B4BD3F8883023F0A3
:1027700040627B689B6B18491343C1F888307B68C3
:102780009B6BB3F1006F05D1134BDB68124A43F426
:102790008013D3607B681B6803F40043002B15D0C3
:1027A0000D4BD3F8883023F040527B68DB6B0A492D
:1027B0001343C1F888307B68DB6BB3F1805F05D1D0
:1027C000054BDB68044A43F48033D360BB7C184676
:1027D0001837BD4680BD00BF0010024080B485B0F0
:1027E00000AF78607B68002B41D14B4B1B6803F432
:1027F000C063B3F5806F31D1474BD3F88030464A80
:1028000023F48073C2F88030434B1B6823F4C06309
:10281000414A43F400731360404B1B68322202FBB1
:1028200003F33F4AA2FB03239B0C0133FB6002E04E
:10283000FB68013BFB60384B5B6903F48063B3F5D5
:10284000806F02D1FB68002BF2D1334B5B6903F43C
:102850008063B3F5806F58D1032357E02E4BD3F834
:1028600080302D4A23F48073C2F880304DE07B68BD
:10287000B3F5007F41D1284B1B6803F4C063B3F567
:10288000806F31D1244BD3F88030234A43F48073D6
:10289000C2F88030204B1B6823F4C0631E4A43F407
:1028A000007313601D4B1B68322202FB03F31C4AAA
:1028B000A2FB03239B0C0133FB6002E0FB68013B9E
:1028C000FB60154B5B6903F48063B3F5806F02D145
:1028D000FB68002BF2D1104B5B6903F48063B3F506
:1028E000806F12D1032311E00B4BD3F880300A4ADA
:1028F00043F48073C2F8803007E0074B1B6823F471
:10290000C063054A43F480631360002318461437FC
:10291000BD465DF8047B7047007000400800002051
:1029200083DE1B4380B400AF054B9B68044A43F42D
:102930008043936000BFBD465DF8047B704700BFD5
:102940000070004080B485B000AF78607B6803F011
:102950000703FB600C4BDB68BB60BA684FF6FF03F4
:102960001340BB60FB681A02BB68134343F0BF63AC
:1029700043F40033BB60044ABB68D36000BF143724
:10298000BD465DF8047B704700ED00E080B400AF09
:10299000044BDB681B0A03F007031846BD465DF8CD
:1029A000047B704700ED00E080B483B000AF0346C5
:1029B000FB7197F90730002B0BDBFB7903F01F024B
:1029C000074997F907305B09012000FA02F241F844
:1029D000232000BF0C37BD465DF8047B704700BF65
:1029E00000E100E080B483B000AF03463960FB71C2
:1029F00097F90730002B0ADB3B68DAB20C4997F9EC
:102A000007301201D2B20B4483F800230AE03B687E
:102A1000DAB20849FB7903F00F03043B1201D2B28A
:102A20000B441A7600BF0C37BD465DF8047B704737
:102A300000E100E000ED00E080B489B000AFF86094
:102A4000B9607A60FB6803F00703FB61FB69C3F1BF
:102A50000703042B28BF0423BB61FB690433062B47
:102A600002D9FB69033B00E000237B614FF0FF329A
:102A7000BB6902FA03F3DA43BB681A407B699A40E8
:102A80004FF0FF317B6901FA03F3D9437B680B40B8
:102A9000134318462437BD465DF8047B704780B564
:102AA00082B000AF78607868FFF74CFF00BF08374E
:102AB000BD4680BD80B586B000AF0346B9607A6080
:102AC000FB73FFF763FF78617A68B9687869FFF78D
:102AD000B3FF024697F90F3011461846FFF782FF01
:102AE00000BF1837BD4680BD80B582B000AF034639
:102AF000FB7197F907301846FFF756FF00BF0837FC
:102B0000BD4680BD80B400AF064BD3F88830054A7F
:102B100043F47003C2F8883000BFBD465DF8047B03
:102B2000704700BF00ED00E080B487B000AF786070
:102B3000396000237B6164E13B681A6801217B698D
:102B400001FA03F31340FB60FB68002B00F0568191
:102B50003B685B6803F00303012B05D03B685B68AF
:102B600003F00303022B30D17B689B683B617B69D8
:102B70005B00032202FA03F3DB433A6913403B6133
:102B80003B68DA687B695B0002FA03F33A69134336
:102B90003B617B683A699A607B685B683B610122B4
:102BA0007B6902FA03F3DB433A6913403B613B68FC
:102BB0005B681B0903F001027B6902FA03F33A69BF
:102BC00013433B617B683A695A603B685B6803F07A
:102BD0000303032B09D13B685B6803F00303032B5A
:102BE0001BD13B689B68012B17D07B68DB683B617E
:102BF0007B695B00032202FA03F3DB433A6913406B
:102C00003B613B689A687B695B0002FA03F33A69AF
:102C100013433B617B683A69DA603B685B6803F0A9
:102C20000303022B23D17B69DA087B68083253F84F
:102C300022303B617B6903F007039B000F2202FAFD
:102C400003F3DB433A6913403B613B681A697B69D4
:102C500003F007039B0002FA03F33A6913433B6155
:102C60007B69DA087B680832396943F822107B688F
:102C70001B683B617B695B00032202FA03F3DB43C1
:102C80003A6913403B613B685B6803F003027B6970
:102C90005B0002FA03F33A6913433B617B683A69CC
:102CA0001A603B685B6803F44033002B00F0A68099
:102CB0005B4B1B6E5A4A43F001031366584B1B6E65
:102CC00003F00103BB60BB68564A7B699B08023373
:102CD00052F823303B617B6903F003039B000F2212
:102CE00002FA03F3DB433A6913403B617B68B3F1BB
:102CF000904F1FD07B684C4A934219D07B684B4A57
:102D0000934213D07B684A4A93420DD07B68494A6C
:102D1000934207D07B68484A934201D105230AE0D9
:102D2000062308E0042306E0032304E0022302E074
:102D3000012300E000237A6902F00302920093402D
:102D40003A6913433B6137497B699B0802333A690F
:102D500041F82320394B9B683B61FB68DB433A69B0
:102D600013403B613B685B6803F48013002B03D086
:102D70003A69FB6813433B61304A3B6993602F4BD0
:102D8000DB683B61FB68DB433A6913403B613B68AE
:102D90005B6803F40013002B03D03A69FB6813430C
:102DA0003B61264A3B69D360244B5B683B61FB680F
:102DB000DB433A6913403B613B685B6803F40033D3
:102DC000002B03D03A69FB6813433B611B4A3B6904
:102DD00053601A4B1B683B61FB68DB433A69134045
:102DE0003B613B685B6803F48033002B03D03A6996
:102DF000FB6813433B61114A3B6913607B690133F4
:102E00007B613B681A687B6922FA03F3002B7FF42D
:102E100093AE00BF00BF1C37BD465DF8047B704712
:102E20000010024000000140000400480008004873
:102E3000000C004800100048001400480004014045
:102E400080B483B000AF78600B467B8013467B7004
:102E50007B78002B03D07A887B689A6102E07A88BD
:102E60007B689A6200BF0C37BD465DF8047B7047F3
:102E700080B584B000AF78607B68002B01D101235E
:102E80008EE07B681B681A46474B9A420FD87B68D6
:102E90001B681A46454B1344454AA2FB03231B09F2
:102EA0009A007B685A647B68424A1A640EE07B6829
:102EB0001B681A46404B13443D4AA2FB03231B09DF
:102EC0009A007B685A647B683C4A1A647B680222D9
:102ED00083F825207B681B681B68FB60FB6823F474
:102EE000FF4323F07003FB607B689A687B68DB68B4
:102EF0001A437B681B691A437B685B691A437B68CA
:102F00009B691A437B68DB691A437B681B6A13431E
:102F1000FA681343FB607B681B68FA681A6078687C
:102F200000F0FEF87B689B68B3F5804F02D17B68A8
:102F300000225A607B685A687B689B6C02F07F02B3
:102F40001A607B68DB6C7A68126D5A607B685B681C
:102F5000002B10D07B685B68042B0CD8786800F0DD
:102F600027F97B685B6D00221A607B689B6D7A682D
:102F7000D26D5A6008E07B6800225A657B680022A7
:102F80009A657B680022DA657B680022DA637B68D9
:102F9000012283F825207B68002283F82420002367
:102FA00018461037BD4680BD07040240F8FFFDBF3C
:102FB000CDCCCCCC00000240F8FBFDBF00040240A9
:102FC00080B584B000AF78607B681B6C1B68FB60C9
:102FD0007B681B681B68BB607B685B6C03F01F032E
:102FE00004229A40FB681340002B26D0BB6803F0F4
:102FF0000403002B21D07B681B681B6803F02003AF
:10300000002B07D17B681B681A687B681B6822F05D
:1030100004021A607B685B6C03F01F027B681B6C08
:10302000042101FA02F25A607B681B6B002B71D0FD
:103030007B681B6B786898476CE07B685B6C03F07F
:103040001F0302229A40FB681340002B2ED0BB685E
:1030500003F00203002B29D07B681B681B6803F078
:103060002003002B0BD17B681B681A687B681B68E8
:1030700022F00A021A607B68012283F825207B680F
:103080005B6C03F01F027B681B6C022101FA02F2E9
:103090005A607B68002283F824207B68DB6A002B5F
:1030A00038D07B68DB6A7868984733E07B685B6C74
:1030B00003F01F0308229A40FB681340002B2AD01C
:1030C000BB6803F00803002B25D07B681B681A68D7
:1030D0007B681B6822F00E021A607B685B6C03F051
:1030E0001F027B681B6C012101FA02F25A607B68A7
:1030F0000122DA637B68012283F825207B680022A5
:1031000083F824207B685B6B002B04D07B685B6BAF
:103110007868984700BF00BF1037BD4680BD0000EB
:1031200080B487B000AF78607B681B681A461B4B81
:103130009A420BD81A4B3B617B681B68DBB2083B99
:10314000184AA2FB03231B097B610BE0164B3B6172
:103150007B681B68DBB2083B124AA2FB03231B09F6
:1031600006337B613B69FB607B685B6C9B089A0064
:10317000FB6813441A467B689A647B680B4ADA64DE
:103180007B6903F01F0301229A407B681A6500BF28
:103190001C37BD465DF8047B704700BF0704024042
:1031A00000080240CDCCCCCC200802408008024070
:1031B00080B485B000AF78607B685B6803F07F0304
:1031C000FB60FA680B4B13449B001A467B685A65F8
:1031D0007B68094A9A65FB68013B03F01F030122E3
:1031E0009A407B68DA6500BF1437BD465DF8047B02
:1031F000704700BF3F8200104009024080B483B096
:1032000000AF786039607B689B6823F47C123B6870
:103210001A437B689A6000BF0C37BD465DF8047B9B
:10322000704780B483B000AF786039607B689B687A
:1032300023F0E0723B681A437B689A6000BF0C374A
:10324000BD465DF8047B704780B483B000AF786002
:103250007B689B6803F0E07318460C37BD465DF849
:10326000047B704780B487B000AFF860B9607A60C3
:103270003B60FB6860331A46BB689B0013447B616C
:103280007B691A68084B13407A6802F0F8413A6883
:103290000A43134343F000427B691A6000BF1C37A6
:1032A000BD465DF8047B704700F0FF0380B485B035
:1032B00000AF786039607B6860331A463B689B00DA
:1032C0001344FB60FB681B6803F0F843184614378F
:1032D000BD465DF8047B704780B487B000AFF860EE
:1032E000B9607A60FB6860331A46BB689B00134480
:1032F0007B617B691B6823F000427B681A437B6912
:103300001A6000BF1C37BD465DF8047B704780B46F
:1033100087B000AFF860B9607A60FB6860331A4626
:10332000BB689B0013447B617B691B6823F0807240
:103330007B681A437B691A6000BF1C37BD465DF885
:10334000047B704780B487B000AFF860B9607A60E2
:10335000FB6860331A46BB689B0013447B617B6942
:103360001B6823F000727B681A437B691A6000BFF8
:103370001C37BD465DF8047B704780B483B000AF56
:10338000786039607B685B6923F000423B681A43D0
:103390007B685A6100BF0C37BD465DF8047B7047FF
:1033A00080B483B000AF78607B68DB6803F440636F
:1033B000002B01D1012300E0002318460C37BD4645
:1033C0005DF8047B704780B487B000AFF860B960E7
:1033D0007A60FB6830331A46BB681B0A9B0003F017
:1033E0000C0313447B617B691A68BB6803F01F03FD
:1033F0001F2101FA03F3DB431A407B689B0E03F0A5
:103400001F01BB6803F01F0301FA03F31A437B6932
:103410001A6000BF1C37BD465DF8047B704780B45E
:1034200083B000AF78607B68DB6C03F4C073002B63
:1034300001D1012300E0002318460C37BD465DF89A
:10344000047B704780B487B000AFF860B9607A60E1
:10345000FB6814331A46BB685B0E9B0003F0040341
:1034600013447B617B691A68BB681B0D03F01F0363
:10347000072101FA03F3DB431A40BB681B0D03F07D
:103480001F03796801FA03F31A437B691A6000BFCE
:103490001C37BD465DF8047B7047000080B485B0E2
:1034A00000AFF860B9607A60FB68D3F8B020BB6801
:1034B000C3F31203DB431A407B6803F01803084987
:1034C000D940BB680B40C3F312031A43FB68C3F82F
:1034D000B02000BF1437BD465DF8047B704700BFC5
:1034E000FFFF070080B483B000AF78607B689B6803
:1034F00003F01F0318460C37BD465DF8047B704788
:1035000080B483B000AF78607B689B6803F460434D
:1035100018460C37BD465DF8047B704780B483B015
:1035200000AF78607B689B6823F0204323F03F0363
:103530007A68936000BF0C37BD465DF8047B704726
:1035400080B483B000AF78607B689B6803F0005361
:10355000B3F1005F01D1012300E0002318460C37CE
:10356000BD465DF8047B704780B483B000AF7860DF
:103570007B689B6823F0104323F03F0343F08052A5
:103580007B689A6000BF0C37BD465DF8047B7047CE
:1035900080B483B000AF78607B689B6803F0805391
:1035A000B3F1805F01D1012300E0002318460C37FE
:1035B000BD465DF8047B704780B483B000AF78608F
:1035C0007B689B6803F00103012B01D1012300E01C
:1035D000002318460C37BD465DF8047B704780B465
:1035E00083B000AF78607B689B6803F00403042B12
:1035F00001D1012300E0002318460C37BD465DF8D9
:10360000047B704780B483B000AF78607B689B68B0
:1036100003F00803082B01D1012300E00023184622
:103620000C37BD465DF8047B7047000090B589B04B
:1036300000AF78600023FB770023FB607B68002BE2
:1036400001D1012367E17B685B69002B7B68DB6D3F
:10365000002B09D17868FDF729F97B6800221A66EA
:103660007B68002283F858207B681B681846FFF7A8
:1036700067FF0346002B04D07B681B681846FFF7E2
:103680004DFF7B681B681846FFF782FF0346002B3F
:1036900015D17B681B681846FFF766FFA04B1B68B7
:1036A0009B09A04AA2FB03239B0901335B00FB603B
:1036B00002E0FB68013BFB60FB68002BF9D17B68F3
:1036C0001B681846FFF764FF0346002B0DD17B688B
:1036D000DB6D43F010027B68DA657B681B6E43F09C
:1036E00001027B681A660123FB777B681B6818461A
:1036F000FFF775FF78617B68DB6D03F01003002B2B
:1037000040F000817B69002B40F0FC807B68DB6D22
:1037100023F4817343F002027B68DA657B681B68DF
:103720001846FFF749FF0346002B11D14FF0A04088
:10373000FFF742FF04467C48FFF73EFF0346234362
:10374000002B05D17B685B6819467848FFF756FD6A
:103750007B685B7F5A037B68DB6B1A437B68DB68A3
:103760001A437B689B681A437B6893F824301B04D8
:103770001343BB617B6893F82430012B06D17B682F
:103780009B6A013B5B04BA691343BB617B68DB6ADC
:10379000002B09D07B68DB6A03F478727B681B6BB3
:1037A0001343BA691343BB617B681B68DA68604BDB
:1037B00013407A681268B9690B43D3607B681B6851
:1037C0001B6923F040617B685A6B7B681B680A4366
:1037D0001A617B681B681846FFF714FF38617B6924
:1037E000002B6DD13B69002B6AD17B681B7F9A034C
:1037F0007B6893F838305B001343BB617B681B68C0
:10380000DB6823F4804323F002037A681268B96905
:103810000B43D3607B681B69002B17D07B681B6848
:103820001A697B681B6842F480321A617B681B68E6
:10383000D3F8C03023F47F5323F03F037A68116933
:103840007A6812680B43C2F8C03013E07B681B68CB
:103850001A697B681B6822F480321A617B681B68D6
:10386000D3F8C0307A68126823F47F5323F03F0303
:10387000C2F8C0307B6893F84030012B18D17B68C8
:103880001B681B6923F4FF6323F004037A68516CFF
:103890007A68926C11437A68D26C11437A68126D1F
:1038A0000A431A437B681B6842F001021A6107E071
:1038B0007B681B681A697B681B6822F001021A6129
:1038C0007B685B69012B0CD17B681B681B6B23F049
:1038D0000F017B681B6A5A1E7B681B680A431A63C8
:1038E00007E07B681B681A6B7B681B6822F00F027D
:1038F0001A637B68DB6D23F0030343F001027B68EE
:10390000DA6507E07B68DB6D43F010027B68DA65FF
:103910000123FB77FB7F18462437BD4690BD00BFCF
:1039200008000020632D3E050001005000030050F8
:103930000740F0FF80B58AB000AF786000237B625B
:103940007B681B681B68FB617B681B685B68BB61ED
:103950008348FFF7C7FD7861FB6903F00203002B82
:1039600017D0BB6903F00203002B12D07B68DB6D1C
:1039700003F01003002B05D17B68DB6D43F400627C
:103980007B68DA65786800F06EFF7B681B6802224E
:103990001A60FB6903F00403002B04D0BB6903F039
:1039A0000403002B0AD1FB6903F00803002B00F08D
:1039B0008580BB6903F00803002B7FD07B68DB6D3B
:1039C00003F01003002B05D17B68DB6D43F400721C
:1039D0007B68DA657B681B681846FFF7E1FC0346E5
:1039E000002B64D07B681B685E4A934202D07B68E0
:1039F0001B6801E04FF0A0437A681268934208D038
:103A00007B69002B05D07B69052B02D07B69092BD4
:103A100004D17B681B68DB683B620DE07B681B6838
:103A2000504A934202D07B681B6801E04FF0A043EC
:103A30003B613B69DB683B623B6A03F40053002B4C
:103A400035D17B681B681B6803F00803082B2ED157
:103A50007B681B681846FFF7C2FD0346002B1AD18E
:103A60007B681B685A687B681B6822F00C025A60EE
:103A70007B68DB6D23F480727B68DA657B68DB6DC5
:103A800003F48053002B12D17B68DB6D43F00102FD
:103A90007B68DA650BE07B68DB6D43F010027B68C6
:103AA000DA657B681B6E43F001027B681A667868F2
:103AB00000F05AF97B681B680C221A60FB6903F05E
:103AC0002003002B04D0BB6903F02003002B0BD193
:103AD000FB6903F04003002B00F09E80BB6903F0FC
:103AE0004003002B00F098807B68DB6D03F010032F
:103AF000002B05D17B68DB6D43F400527B68DA65EF
:103B00007B681B681846FFF78AFCF8607B681B68B7
:103B10001846FFF745FCB8607B681B68114A934262
:103B200002D07B681B6801E04FF0A0437A681268FE
:103B3000934208D07B69002B05D07B69062B02D00D
:103B40007B69072B04D17B681B68DB683B6211E053
:103B50007B681B68034A934206D07B681B6805E0BC
:103B600000030050000100504FF0A0433B613B694F
:103B7000DB683B62FB68002B47D03B6A03F00073B5
:103B8000002B07D0BB68002B3FD03B6A03F40053E7
:103B9000002B3AD17B681B681B6803F04003402B65
:103BA00033D13B6A03F40013002B2ED17B681B68D2
:103BB0001846FFF727FD0346002B1AD17B681B68C8
:103BC0005A687B681B6822F060025A607B68DB6D74
:103BD00023F480527B68DA657B68DB6D03F48073C5
:103BE000002B12D17B68DB6D43F001027B68DA6544
:103BF0000BE07B68DB6D43F010027B68DA657B6865
:103C00001B6E43F001027B681A66786800F003FEC1
:103C10007B681B6860221A60FB6903F08003002B3D
:103C200011D0BB6903F08003002B0CD07B68DB6DE7
:103C300043F480327B68DA65786800F09FF87B682F
:103C40001B6880221A60FB6903F48073002B12D07A
:103C5000BB6903F48073002B0DD07B68DB6D43F4EC
:103C600000327B68DA65786800F0E9FD7B681B68E4
:103C70004FF480721A60FB6903F40073002B12D0BA
:103C8000BB6903F40073002B0DD07B68DB6D43F43C
:103C900080227B68DA65786800F0DBFD7B681B6852
:103CA0004FF400721A60FB6903F01003002B36D04A
:103CB000BB6903F01003002B31D07B68DB6B002B5A
:103CC00002D101237B6214E07B69002B08D02548D8
:103CD000FFF716FC0346002B0BD001237B6208E0A4
:103CE0007B681B68DB6803F00103002B01D0012314
:103CF0007B627B6A012B0ED17B68DB6D43F48062B3
:103D00007B68DA657B681B6E43F002027B681A668B
:103D1000786800F03DF87B681B6810221A60FB6928
:103D200003F48063002B18D0BB6903F48063002B7D
:103D300013D07B68DB6D43F480427B68DA657B6877
:103D40001B6E43F008027B681A667B681B684FF4A1
:103D500080621A60786800F068FD00BF2837BD46B1
:103D600080BD00BF0003005080B483B000AF786016
:103D700000BF0C37BD465DF8047B704780B483B04C
:103D800000AF786000BF0C37BD465DF8047B70471C
:103D900080B483B000AF786000BF0C37BD465DF8DB
:103DA000047B704780B5B6B000AF786039600023FF
:103DB00087F8D7300023FB607B6893F85830012BDD
:103DC00001D10223C8E37B68012283F858207B6875
:103DD0001B681846FFF703FC0346002B40F0AD8339
:103DE0007B6818683B6859683B681B681A46FFF790
:103DF000EAFA7B681B681846FFF7F1FBC7F8D000AA
:103E00007B681B681846FFF7FDFBC7F8CC00D7F8A6
:103E1000D030002B40F0D981D7F8CC30002B40F0C7
:103E2000D4813B689B68B3F1004F0FD17B68186861
:103E30003B681B6800221946FFF704FB7B681B6880
:103E40004FF000411846FFF798FA0EE07B681868BB
:103E50003B6819683B689B681A46FFF7F3FA7B6872
:103E60001B6800211846FFF788FA3B685A697B688F
:103E70001B68DB68DB0803F003035B0002FA03F353
:103E8000C7F8C8303B681B69042B22D07B681868D0
:103E90003B6819693B681A68D7F8C830FFF7E2F940
:103EA0007B6818683B6819693B689B691A46FFF78D
:103EB0002EFA7B6818683B6819693B681B7F012BE9
:103EC00002D14FF0007300E000231A46FFF73AFAE0
:103ED0007BE17B681B6800211846FFF7E7F9034682
:103EE000C3F31203002B0AD17B681B68002118461C
:103EF000FFF7DCF903469B0E03F01F021EE07B6810
:103F00001B6800211846FFF7D1F90346C7F8BC30FB
:103F1000D7F8BC3093FAA3F3C7F8B830D7F8B83065
:103F2000C7F8C030D7F8C030002B01D1202304E0FF
:103F3000D7F8C030B3FA83F3DBB21A463B681B688C
:103F4000C3F31203002B05D13B681B689B0E03F0E3
:103F50001F0318E03B681B68C7F8B030D7F8B030D3
:103F600093FAA3F3C7F8AC30D7F8AC30C7F8B43045
:103F7000D7F8B430002B01D1202304E0D7F8B430B7
:103F8000B3FA83F3DBB29A4206D17B681B68002246
:103F900000211846FFF7A0F97B681B68012118462D
:103FA000FFF784F90346C3F31203002B0AD17B68A1
:103FB0001B6801211846FFF779F903469B0E03F0B1
:103FC0001F021EE07B681B6801211846FFF76EF98F
:103FD0000346C7F8A430D7F8A43093FAA3F3C7F880
:103FE000A030D7F8A030C7F8A830D7F8A830002BF9
:103FF00001D1202304E0D7F8A830B3FA83F3DBB271
:104000001A463B681B68C3F31203002B05D13B68BB
:104010001B689B0E03F01F0318E03B681B68C7F882
:104020009830D7F8983093FAA3F3C7F89430D7F8BC
:104030009430C7F89C30D7F89C30002B01D1202356
:1040400004E0D7F89C30B3FA83F3DBB29A4206D18E
:104050007B681B68002201211846FFF73DF97B6849
:104060001B6802211846FFF721F90346C3F3120328
:10407000002B0AD17B681B6802211846FFF716F94E
:1040800003469B0E03F01F021EE07B681B680221A3
:104090001846FFF70BF90346C7F88C30D7F88C3079
:1040A00093FAA3F3C7F88830D7F88830C7F8903070
:1040B000D7F89030002B01D1202304E0D7F89030BE
:1040C000B3FA83F3DBB21A463B681B68C3F31203EF
:1040D000002B05D13B681B689B0E03F01F0316E005
:1040E0003B681B68C7F88030D7F8803093FAA3F399
:1040F000FB67FB6FC7F88430D7F88430002B01D101
:10410000202304E0D7F88430B3FA83F3DBB29A4279
:1041100006D17B681B68002202211846FFF7DCF8F5
:104120007B681B6803211846FFF7C0F80346C3F3FA
:104130001203002B0AD17B681B6803211846FFF786
:10414000B5F803469B0E03F01F0217E07B681B685F
:1041500003211846FFF7AAF803467B677B6F93FAA3
:10416000A3F33B673B6FBB67BB6F002B01D12023E1
:1041700003E0BB6FB3FA83F3DBB21A463B681B68FC
:10418000C3F31203002B05D13B681B689B0E03F0A1
:104190001F0311E03B681B68BB66BB6E93FAA3F379
:1041A0007B667B6EFB66FB6E002B01D1202303E058
:1041B000FB6EB3FA83F3DBB29A4206D17B681B68CD
:1041C000002203211846FFF787F87B681B68184612
:1041D000FFF7F2F90346002B40F040817B68186836
:1041E0003B6819683B68DB681A46FFF757F93B687C
:1041F000DB688F4A934240F031817B6818683B68E6
:104200001B68C3F31203002B0BD13B681B689B0E8A
:10421000013303F01F03092B94BF01230023DBB2FA
:1042200019E03B681B68FB65FB6D93FAA3F3BB6564
:10423000BB6D3B663B6E002B01D1202303E03B6E40
:10424000B3FA83F3DBB2013303F01F03092B94BFEE
:1042500001230023DBB2002B79D03B681B68C3F33A
:104260001203002B07D13B681B689B0E01339B0692
:1042700003F0F84215E03B681B683B653B6D93FA21
:10428000A3F3FB64FB6C7B657B6D002B01D12023CA
:1042900003E07B6DB3FA83F3DBB201339B0603F0DB
:1042A000F8423B681B68C3F31203002B09D13B683B
:1042B0001B689B0E013303F01F03012101FA03F376
:1042C00017E03B681B687B647B6C93FAA3F33B6449
:1042D0003B6CBB64BB6C002B01D1202303E0BB6CA7
:1042E000B3FA83F3DBB2013303F01F03012101FAB8
:1042F00003F342EA03013B681B68C3F31203002B7C
:104300000AD13B681B689B0E013303F01F02134662
:104310005B0013441B0518E03B681B68BB63BB6B69
:1043200093FAA3F37B637B6BFB63FB6B002B01D1E5
:10433000202303E0FB6BB3FA83F3DBB2013303F01A
:104340001F0213465B0013441B050B4381E03B68CF
:104350001B68C3F31203002B07D13B681B689B0E3D
:1043600001339B0603F0F84215E03B681B68FB62D3
:10437000FB6A93FAA3F3BB62BB6A3B633B6B002B04
:1043800001D1202303E03B6BB3FA83F3DBB20133AB
:104390009B0603F0F8423B681B68C3F31203002B33
:1043A00009D13B681B689B0E013303F01F030121F9
:1043B00001FA03F317E03B681B683B623B6A93FA20
:1043C000A3F3FB61FB697B627B6A002B01D1202395
:1043D00003E07B6AB3FA83F3DBB2013303F01F031C
:1043E000012101FA03F342EA03013B681B68C3F3AE
:1043F0001203002B0DD13B681B689B0E013303F0A9
:104400001F0213465B0013441E3B1B0543F0007361
:104410001EE03B681B687B617B6993FAA3F33B61F9
:104420003B69BB61BB69002B04D1202306E000BFC0
:1044300000007F40BB69B3FA83F3DBB2013303F0C2
:104440001F0213465B0013441E3B1B0543F0007321
:104450000B433A6892681946FEF7F4FF3B681A6806
:104460003F4B1340002B71D03E48FEF7EDFEC7F8DE
:10447000C4003B681B683C4A934204D03B681B68FD
:104480003A4A934227D1D7F8C43003F40003002BF3
:1044900021D17B681B68B3F1A04F57D1D7F8C43046
:1044A00043F4000319462F48FEF7BBFE304B1B6850
:1044B0009B09304AA2FB03239B095A1C13465B004D
:1044C00013449B00FB6002E0FB68013BFB60FB6860
:1044D000002BF9D13AE03B681B68274A934213D17D
:1044E000D7F8C43003F08073002B0DD17B681B68B4
:1044F000224A93422AD0D7F8C43043F08073194639
:104500001848FEF78EFE21E03B681B681C4A934268
:104510001CD1D7F8C43003F48003002B16D17B687C
:104520001B68164A934211D0D7F8C43043F4800375
:1045300019460C48FEF775FE08E07B68DB6D43F01A
:1045400020027B68DA65012387F8D7307B68002278
:1045500083F8582097F8D7301846D837BD4680BD25
:104560000000088000030050000021C31000C0902C
:1045700008000020632D3E05000052C700010050D6
:10458000000084CB80B483B000AF786039607B6872
:104590009B6823F0E0723B681A437B689A6000BF17
:1045A0000C37BD465DF8047B704780B483B000AF24
:1045B00078607B689B6803F0E07318460C37BD4653
:1045C0005DF8047B7047000080B487B000AFF860EE
:1045D000B9607A603B60FB6860331A46BB689B0039
:1045E00013447B617B691A68084B13407A6802F0B8
:1045F000F8413A680A43134343F000427B691A606A
:1046000000BF1C37BD465DF8047B704700F0FF0318
:1046100080B485B000AF786039607B6860331A463B
:104620003B689B001344FB60FB681B6803F0F84386
:1046300018461437BD465DF8047B704780B487B0D8
:1046400000AFF860B9607A60FB6860331A46BB68F7
:104650009B0013447B617B691B6823F000427B68ED
:104660001A437B691A6000BF1C37BD465DF8047BA6
:10467000704780B487B000AFF860B9607A60FB68BB
:1046800060331A46BB689B0013447B617B691B68DF
:1046900023F080727B681A437B691A6000BF1C3765
:1046A000BD465DF8047B704780B487B000AFF8600A
:1046B000B9607A60FB6860331A46BB689B0013449C
:1046C0007B617B691B6823F000727B681A437B69FE
:1046D0001A6000BF1C37BD465DF8047B704780B48C
:1046E00083B000AF786039607B685B6923F000427B
:1046F0003B681A437B685A6100BF0C37BD465DF8C2
:10470000047B704780B487B000AFF860B9607A600E
:10471000FB6814331A46BB685B0E9B0003F004036E
:1047200013447B617B691A68BB681B0D03F01F0390
:10473000072101FA03F3DB431A40BB681B0D03F0AA
:104740001F03796801FA03F31A437B691A6000BFFB
:104750001C37BD465DF8047B7047000080B485B00F
:1047600000AFF860B9607A60FB68D3F8B020BB682E
:10477000C3F31203DB431A407B6803F018030849B4
:10478000D940BB680B40C3F312031A43FB68C3F85C
:10479000B02000BF1437BD465DF8047B704700BFF2
:1047A000FFFF070080B483B000AF78607B689B6830
:1047B00003F00103012B01D1012300E0002318467F
:1047C0000C37BD465DF8047B704780B483B000AF02
:1047D00078607B689B6803F00403042B01D10123FC
:1047E00000E0002318460C37BD465DF8047B704797
:1047F00080B483B000AF78607B689B6803F00803E7
:10480000082B01D1012300E0002318460C37BD46D8
:104810005DF8047B704780B483B000AF786000BF60
:104820000C37BD465DF8047B704780B483B000AFA1
:10483000786000BF0C37BD465DF8047B704780B4DC
:1048400083B000AF786000BF0C37BD465DF8047BD5
:10485000704780B483B000AF786000BF0C37BD46AE
:104860005DF8047B704780B483B000AF786000BF10
:104870000C37BD465DF8047B7047000080B5B6B0CC
:1048800000AF78603960002387F8D7300023BB6021
:104890000023C7F8D0307B6893F85830012B02D141
:1048A000022300F0B5BC7B68012283F858207B68A6
:1048B0005B69002B03D03B681B6A012B30D13B683E
:1048C0005B68092B79D13B689B6A002B10D03B6851
:1048D0001B689B0E5B0203F478523B689B6A03F0F3
:1048E0007C031A433B68DB6A1343C7F8D03007E008
:1048F0003B681B689B0E5B0203F47853C7F8D0300B
:104900007B681B68DA6C844B13407A681268D7F8AE
:10491000D0100B43D3647B68D7F8D0205A664CE0A4
:104920007B689B6E002B1DD13B681A6A7B689A6678
:104930007B6800225A663B689B6A002B0DD03B685F
:104940001B6A5A1E3B689B6A03F07C031A433B6850
:10495000DB6A1343C7F8D03004E03B681B6A013BB5
:10496000C7F8D0303B681B689B0E03F01F023B6802
:104970005B6803F01F0302FA03F3D7F8D020134358
:10498000C7F8D0307B689B6E5A1E7B689A667B683E
:104990005A6ED7F8D0301A437B685A667B689B6E94
:1049A000002B0AD17B681B68DA6C5B4B13407A687A
:1049B000516E7A6812680B43D3647B681B68184693
:1049C000FFF716FF0346002B24D13B6893F82530F0
:1049D000002B12D17B681B68DB6823F440113B6815
:1049E00093F826305A053B6893F824301B051A4388
:1049F0007B681B680A43DA600CE07B681B68DB6835
:104A000023F440113B6893F826305A057B681B68F5
:104A10000A43DA607B681B681846FFF7D6FEC7F8C2
:104A2000CC007B681B681846FFF7E2FEC7F8C80099
:104A3000D7F8CC30002B40F02E82D7F8C830002BAE
:104A400040F029823B689B6A002B03D03B68DB6AFD
:104A5000002B16D13B6893F82530012B08D17B68D9
:104A60001B68DA687B681B6842F00072DA601FE03E
:104A70007B681B68DA687B681B6822F00072DA606A
:104A800016E03B6893F82530012B09D17B68DB6D7C
:104A900043F020027B68DA65012387F8D73007E00E
:104AA0007B681B68DA687B681B6822F00072DA603A
:104AB0003B6893F83030012B10D17B681B681B6971
:104AC00023F4FF723B68596B3B689B6B0B431A43A3
:104AD0007B681B6842F002021A6107E07B681B6872
:104AE0001A697B681B6822F002021A613B689B68A6
:104AF000B3F1004F12D17B6818683B681B68002235
:104B00001946FFF7FFFD7B681B684FF00041184610
:104B1000FFF7E5FD11E000BF004010047B68186856
:104B20003B6819683B689B681A46FFF7EBFD7B689A
:104B30001B6800211846FFF7D2FD3B685A697B6865
:104B40001B68DB68DB0803F003035B0002FA03F376
:104B5000C7F8C4303B681B69042B22D07B681868F7
:104B60003B6819693B681A68D7F8C430FFF72CFD19
:104B70007B6818683B6819693B689B691A46FFF7B0
:104B800078FD7B6818683B6819693B681B7F012BBF
:104B900002D14FF0007300E000231A46FFF784FDB6
:104BA00079E17B681B6800211846FFF731FD034659
:104BB000C3F31203002B0AD17B681B68002118463F
:104BC000FFF726FD03469B0E03F01F021EE07B68E5
:104BD0001B6800211846FFF71BFD0346C7F8B830D5
:104BE000D7F8B83093FAA3F3C7F8B430D7F8B43095
:104BF000C7F8BC30D7F8BC30002B01D1202304E02B
:104C0000D7F8BC30B3FA83F3DBB21A463B681B68B3
:104C1000C3F31203002B05D13B681B689B0E03F006
:104C20001F0318E03B681B68C7F8AC30D7F8AC30FE
:104C300093FAA3F3C7F8A830D7F8A830C7F8B03074
:104C4000D7F8B030002B01D1202304E0D7F8B030E2
:104C5000B3FA83F3DBB29A4206D17B681B68002269
:104C600000211846FFF7EAFC7B681B680121184603
:104C7000FFF7CEFC0346C3F31203002B0AD17B6877
:104C80001B6801211846FFF7C3FC03469B0E03F087
:104C90001F021EE07B681B6801211846FFF7B8FC65
:104CA0000346C7F8A030D7F8A03093FAA3F3C7F8AB
:104CB0009C30D7F89C30C7F8A430D7F8A430002B2C
:104CC00001D1202304E0D7F8A430B3FA83F3DBB298
:104CD0001A463B681B68C3F31203002B05D13B68DF
:104CE0001B689B0E03F01F0318E03B681B68C7F8A6
:104CF0009430D7F8943093FAA3F3C7F89030D7F8EC
:104D00009030C7F89830D7F89830002B01D1202385
:104D100004E0D7F89830B3FA83F3DBB29A4206D1B5
:104D20007B681B68002201211846FFF787FC7B681F
:104D30001B6802211846FFF76BFC0346C3F31203FE
:104D4000002B0AD17B681B6802211846FFF760FC24
:104D500003469B0E03F01F021EE07B681B680221C6
:104D60001846FFF755FC0346C7F88830D7F8883057
:104D700093FAA3F3C7F88430D7F88430C7F88C309F
:104D8000D7F88C30002B01D1202304E0D7F88C30E9
:104D9000B3FA83F3DBB21A463B681B68C3F3120312
:104DA000002B05D13B681B689B0E03F01F0314E02A
:104DB0003B681B68FB67FB6F93FAA3F3BB67BB6F92
:104DC000C7F88030D7F88030002B01D1202304E0D1
:104DD000D7F88030B3FA83F3DBB29A4206D17B680E
:104DE0001B68002202211846FFF728FC7B681B681D
:104DF00003211846FFF70CFC0346C3F31203002BF4
:104E00000AD17B681B6803211846FFF701FC0346A3
:104E10009B0E03F01F0217E07B681B6803211846F6
:104E2000FFF7F6FB03463B673B6F93FAA3F3FB6682
:104E3000FB6E7B677B6F002B01D1202303E07B6F30
:104E4000B3FA83F3DBB21A463B681B68C3F3120361
:104E5000002B05D13B681B689B0E03F01F0311E07C
:104E60003B681B687B667B6E93FAA3F33B663B6EE5
:104E7000BB66BB6E002B01D1202303E0BB6EB3FAEF
:104E800083F3DBB29A4206D17B681B6800220321C0
:104E90001846FFF7D3FB7B681B681846FFF782FCB8
:104EA0000346002B40F040817B6818683B68196816
:104EB0003B68DB681A46FFF751FC3B68DB688F4AAA
:104EC000934240F031817B6818683B681B68C3F3EC
:104ED0001203002B0BD13B681B689B0E013303F0C0
:104EE0001F03092B94BF01230023DBB219E03B68A9
:104EF0001B68BB65BB6D93FAA3F37B657B6DFB659C
:104F0000FB6D002B01D1202303E0FB6DB3FA83F38B
:104F1000DBB2013303F01F03092B94BF01230023ED
:104F2000DBB2002B79D03B681B68C3F31203002B64
:104F300007D13B681B689B0E01339B0603F0F842C8
:104F400015E03B681B68FB64FB6C93FAA3F3BB643E
:104F5000BB6C3B653B6D002B01D1202303E03B6D17
:104F6000B3FA83F3DBB201339B0603F0F8423B68EC
:104F70001B68C3F31203002B09D13B681B689B0E0F
:104F8000013303F01F03012101FA03F317E03B682B
:104F90001B683B643B6C93FAA3F3FB63FB6B7B6482
:104FA0007B6C002B01D1202303E07B6CB3FA83F3ED
:104FB000DBB2013303F01F03012101FA03F342EADC
:104FC00003013B681B68C3F31203002B0AD13B6843
:104FD0001B689B0E013303F01F0213465B00134452
:104FE0001B0518E03B681B687B637B6B93FAA3F39C
:104FF0003B633B6BBB63BB6B002B01D1202303E006
:10500000BB6BB3FA83F3DBB2013303F01F02134629
:105010005B0013441B050B4381E03B681B68C3F333
:105020001203002B07D13B681B689B0E01339B06C4
:1050300003F0F84215E03B681B68BB62BB6A93FA59
:10504000A3F37B627B6AFB62FB6A002B01D1202306
:1050500003E0FB6AB3FA83F3DBB201339B0603F090
:10506000F8423B681B68C3F31203002B09D13B686D
:105070001B689B0E013303F01F03012101FA03F3A8
:1050800017E03B681B68FB61FB6993FAA3F3BB6104
:10509000BB693B623B6A002B01D1202303E03B6AE2
:1050A000B3FA83F3DBB2013303F01F03012101FAEA
:1050B00003F342EA03013B681B68C3F31203002BAE
:1050C0000DD13B681B689B0E013303F01F02134692
:1050D0005B0013441E3B1B0543F000731EE03B685E
:1050E0001B683B613B6993FAA3F3FB60FB687B6140
:1050F0007B69002B04D1202306E000BF00007F4025
:105100007B69B3FA83F3DBB2013303F01F0213466A
:105110005B0013441E3B1B0543F000730B433A68CE
:1051200092681946FFF7EEFA3B681A683A4B13404B
:10513000002B67D03948FFF738FAC7F8C0003B6842
:105140001B68374A934204D03B681B68354A934238
:1051500027D1D7F8C03003F40003002B21D17B689E
:105160001B68B3F1A04F4DD1D7F8C03043F4000312
:1051700019462A48FFF706FA2B4B1B689B092B4A56
:10518000A2FB03239A0913465B0013449B001833C8
:10519000BB6002E0BB68013BBB60BB68002BF9D180
:1051A00030E03B681B68224A934213D1D7F8C030E5
:1051B00003F08073002B0DD17B681B681D4A93425E
:1051C00020D0D7F8C03043F0807319461348FFF75A
:1051D000D9F917E03B681B68174A934212D1D7F8F8
:1051E000C03003F48003002B0CD17B681B68114A8C
:1051F000934207D0D7F8C03043F4800319460748DC
:10520000FFF7C0F97B68002283F8582097F8D73061
:105210001846D837BD4680BD000008800003005006
:10522000000021C31000C09008000020632D3E053F
:10523000000052C700010050000084CB90B5A1B01F
:1052400000AF78603960002387F87F307B6893F87F
:105250005830012B01D102238BE07B68012283F8B7
:10526000582000237B660023BB667B681B68B3F174
:10527000A04F02D1414BBB6001E00023BB60BB6883
:10528000002B0BD17B68DB6D43F020027B68DA6575
:105290007B68002283F8582001236AE0BB68184627
:1052A000FFF793FAB8677B681B681846FFF78DFA1B
:1052B0000346002B4CD1BB6F002B49D1304B7B6791
:1052C0003B681B68002B28D07B6F9B6823F46042EF
:1052D0003B6859687B6893F838305B030B431A438B
:1052E0007B6F9A604FF0A040FFF75CFA04462348BA
:1052F000FFF758FA03462343002B33D17B6F9B689B
:1053000023F4716323F00F033A6811683A689268D6
:105310000A431A437B6F9A6024E07B6F9B6823F4F7
:1053200060427B6F9A604FF0A040FFF73BFA044663
:105330001248FFF737FA03462343002B12D17B6F45
:105340009B6823F4716323F00F037A6F936009E085
:105350007B68DB6D43F020027B68DA65012387F808
:105360007F3000E000BF7B68002283F8582097F868
:105370007F3018468437BD4690BD00BF0001005005
:105380000003005080B584B000AF78607B68002BCC
:1053900001D1012347E17B6893F85C30DBB2002B3D
:1053A00006D17B68002283F85D207868FBF7ACFBB0
:1053B0007B681B689A697B681B6822F010029A61FF
:1053C000FCF7B0FAF86012E0FCF7ACFA0246FB68B2
:1053D000D31A0A2B0BD97B681B6E43F001027B6842
:1053E0001A667B68032283F85C2001231BE17B683B
:1053F0001B689B6903F00803082BE5D07B681B68DA
:105400009A697B681B6842F001029A61FCF78AFA8C
:10541000F86012E0FCF786FA0246FB68D31A0A2B02
:105420000BD97B681B6E43F001027B681A667B68B0
:10543000032283F85C200123F5E07B681B689B69ED
:1054400003F00103002BE5D07B681B689A697B6839
:105450001B6842F002029A617B681B68744A93429F
:1054600003D1744A7B685B6813607B681B7C012BEB
:1054700008D17B681B689A697B681B6822F0400230
:105480009A6107E07B681B689A697B681B6842F039
:1054900040029A617B685B7C012B08D17B681B68AA
:1054A0009A697B681B6842F480429A6107E07B68D6
:1054B0001B689A697B681B6822F480429A617B684A
:1054C0009B7C012B08D17B681B689A697B681B68F1
:1054D00022F480529A6107E07B681B689A697B68B6
:1054E0001B6842F480529A617B681B689B6923F4B5
:1054F00040717B689A687B681B680A439A617B6885
:105500001B689A697B681B6822F0A4029A617B6819
:105510001B681A697B681B6822F010021A617B689D
:10552000DB68012B08D17B681B689A697B681B6864
:1055300042F004029A612CE07B68DB68002B28D0E3
:105540007B68DB68022B1CD07B681B689A697B68D0
:105550001B6842F080029A617B681B681A697B684D
:105560001B6842F010021A617B68DB68032B10D1C4
:105570007B681B689A697B681B6842F020029A610D
:1055800007E07B681B689A697B681B6842F0200211
:105590009A617B689B69013B5A067B68DB69013B2A
:1055A0001B021A437B681B6A013B42EA03017B68CA
:1055B0005B69013B1A047B681B680A43DA617B68FC
:1055C0009B68B3F5407F15D17B689B6A5A1E7B6848
:1055D000DB6A013B1B021A437B681B6B013B1B010F
:1055E00042EA03017B685B6A013B1A047B681B6823
:1055F0000A43DA607B681B68D3F8C0107B68DA6BFB
:105600007B681B680A43C3F8C020786800F014F870
:105610007B6800229A657B6800221A667B680122FB
:1056200083F85C20002318461037BD4680BD00BFBC
:10563000006400400065004080B485B000AF786031
:10564000274BBB607B68BA681A647B681B68D3F819
:10565000803023F4F8117B685B6B1A047B681B684D
:105660000A43C3F88020BB6803F170027B685A6468
:105670007B681B68D3F8803023F070617B689B6B7C
:105680001A067B681B680A43C3F88020BB6803F1D5
:10569000B0027B689A64BB6803F5C4727B68DA6405
:1056A000BB6803F518727B681A65BB6803F51E7248
:1056B0007B685A65BB68FB6005E0FB6800221A60E6
:1056C000FB680433FB60BB6803F55473FA689A42C5
:1056D000F3D300BF00BF1437BD465DF8047B7047AD
:1056E00000A4004080B582B000AF78607B68002BDA
:1056F00001D101238DE07B6893F84130DBB2002BB0
:1057000006D17B68002283F840207868FBF7B6FA60
:105710007B68242283F841207B681B681A687B68B9
:105720001B6822F001021A607B685A687B681B685C
:1057300022F070621A617B681B689A687B681B683C
:1057400022F400429A607B68DB68012B07D17B68FA
:105750009A687B681B6842F400429A6006E07B68A6
:105760009A687B681B6842F404429A607B68DB6835
:10577000022B08D17B681B685A687B681B6842F45F
:1057800000625A6007E07B681B685A687B681B6888
:1057900022F400625A607B681B685B687A68126852
:1057A00043F0007343F4004353607B681B68DA687E
:1057B0007B681B6822F40042DA607B681A697B68A8
:1057C0005B6942EA03017B689B691A027B681B687C
:1057D0000A43DA607B68D9697B681A6A7B681B6850
:1057E0000A431A607B681B681A687B681B6842F072
:1057F00001021A607B6800225A647B68202283F8C9
:1058000041207B6800221A637B68002283F84220D3
:10581000002318460837BD4680BD80B483B000AF72
:10582000786039607B6893F84130DBB2202B38D147
:105830007B6893F84030012B01D1022332E07B6872
:10584000012283F840207B68242283F841207B6872
:105850001B681A687B681B6822F001021A607B686B
:105860001B681A687B681B6822F480521A607B6888
:105870001B6819687B681B683A680A431A607B6872
:105880001B681A687B681B6842F001021A607B681B
:10589000202283F841207B68002283F840200023E7
:1058A00000E0022318460C37BD465DF8047B7047C4
:1058B00080B485B000AF786039607B6893F8413080
:1058C000DBB2202B39D17B6893F84030012B01D11A
:1058D000022333E07B68012283F840207B68242286
:1058E00083F841207B681B681A687B681B6822F07C
:1058F00001021A607B681B681B68FB60FB6823F46D
:105900007063FB603B681B02FA681343FB607B68B3
:105910001B68FA681A607B681B681A687B681B68DA
:1059200042F001021A607B68202283F841207B68E4
:10593000002283F84020002300E002231846143799
:10594000BD465DF8047B704780B584B000AF7860D9
:105950000023FB737B68002B01D10123BBE07B6834
:1059600093F83A30DBB2052B01D10123B3E07B6819
:1059700093F83A30DBB2022B01D10123ABE0584B54
:105980001B6E574A43F001031366554B1B6E03F021
:105990000103BB60BB687B6893F83A30DBB2002B35
:1059A00003D17B68002283F839207868FBF738FA46
:1059B0007B689B68402B03D07B689B68602B33D14E
:1059C0007B681B681B6823F010017B68DA6A7B68C0
:1059D0001B680A431A607B681B681A68414B1340B6
:1059E0007A6851687A68926811437A6812690A4342
:1059F0007968097D012902D14FF4807100E000210E
:105A000011437A68526A11437A68926A11437A683C
:105A1000126BD20411437A68526B120611437A68F2
:105A200012680B43136035E07B681B681B6823F02A
:105A300010017B68DA6A7B681B680A431A607B681E
:105A40001B681A68274B13407A6851687A68926815
:105A500011437A68D26811437A6812690A437968F7
:105A6000097D012902D14FF4807100E0002111432A
:105A70007A68526A11437A68926A11437A68126BA3
:105A8000D20411437A68526B120611437A68126885
:105A90000B4313607B681B689B69002B10DB7B68E2
:105AA0001B689B6923F03F017B689A697B68DB690F
:105AB0001A437B681B6A1A437B681B680A439A6116
:105AC0007B6893F83A30DBB2002B03D17B6801226C
:105AD00083F83A20FB7B18461037BD4680BD00BFD7
